:020000040800F2
:10000000580D002061040008DD010008DF01000830
:10001000E3010008E7010008EB0100080000000010
:10002000000000000000000000000000EF010008D8
:10003000F101000800000000F3010008F5010008CC
:100040007B0400087B0400087B0400087B04000894
:100050007B0400087B0400087B0400087B04000884
:100060007B0400087B0400087B0400087B04000874
:100070007B0400087B0400087B0400087B04000864
:100080007B0400087B0400087B0400087B04000854
:100090007B0400087B0400087B0400087B04000844
:1000A0007B0400087B0400087B0400087B04000834
:1000B0007B040008933300087B3300087B040008AE
:1000C0007B0400087B0400087B0400087B04000814
:1000D0007B0400087B0400087B04000883390008C7
:1000E000E74300087B0400087B04000800F002F8E6
:1000F00000F05FF80AA090E8000C82448344AAF163
:100100000107DA4501D100F054F8AFF2090EBAE860
:100110000F0013F0010F18BFFB1A43F0010318473B
:1001200080C90000A0C900000A444FF0000C10F87C
:10013000013B13F0070408BF10F8014B1D1108BF65
:1001400010F8015B641E05D010F8016B641E01F805
:10015000016BF9D113F0080F1EBF10F8014BAD1C55
:100160000C1B09D16D1E58BF01F801CBFAD505E073
:1001700014F8016B01F8016B6D1EF9D59142D6D3CD
:10018000704700000023002400250026103A28BFF5
:1001900078C1FBD8520728BF30C148BF0B607047F9
:1001A000642908F04583002070471FB51FBD10B5B6
:1001B00010BD08F00DFD1146FFF7F7FF00F00CF938
:1001C00008F02BFD03B4FFF7F2FF03BC02F0AEFB17
:1001D00030BF72B662B680F308887047704700BFC0
:1001E000FEE700BFFEE700BFFEE700BFFEE7704787
:1001F00070477047704700000CB5002001900090D8
:100200006C48006840F480306A49086000BF694863
:10021000006800F4003000900198401C01900098A4
:1002200018B90198B0F5A06FF1D16248006800F4E8
:10023000003010B10120009001E0002000900098F3
:10024000012843D15C48006840F010005A4908601A
:100250000846006820F0030008600846006840F087
:1002600002000860534840685249486008464068A8
:1002700048600846406840F480604860084640682E
:1002800020F47C1048600846406840F4E81048605C
:100290000846006840F08070086000BF454800686C
:1002A00000F000700028F9D04248406820F00300B8
:1002B000404948600846406840F00200486000BF7E
:1002C0003C48406800F00C000828F9D10CBD10B57E
:1002D000FFF792FF10BD10B53648006840F00100EE
:1002E000344908600846406834490840314948604C
:1002F00008460068324908402E49086008460068F0
:1003000020F4802008600846406820F4FE00486021
:100310004FF41F008860FFF7DAFF4FF000602949B3
:10032000086010BD10B5002100200022214B5B6841
:1003300003F00C0121B1042906D0082928D107E0D7
:10034000214B224C236027E01F4B204C236023E0ED
:10035000184B5B6803F47010164B5B6803F4803233
:10036000022303EB904022B9194B4343174C2360FF
:100370000DE0104B5B6803F4003323B1144B43438F
:10038000124C236003E0104B4343104C236003E006
:100390000D4B0E4C236000BF00BF064B5B68C3F3E0
:1003A00003130C4CE15C094B1B68CB40074C2360EA
:1003B00010BD000000100240002002400000FFF8C5
:1003C000FFFFF6FE08ED00E000127A0000000020BA
:1003D00000093D0004000020022002F04FF902F065
:1003E000DDF8022002F034FA012002F031FA02F0C6
:1003F00001FB02F02FFB002141F61F4002F0AAFE94
:100400004FF4E13002F0AFFA4FF4165003F06AFAFD
:1004100002F0F8FE02F040FF02F0FCFD02F0CEFF19
:1004200002F043FD07F00AFF07F01CFF03F070FC29
:100430000FE00848007808B904F0B2FA0120064934
:10044000087000200549087000BF034800780028A4
:10045000FBD1EEE71B0000203D0000203C00002007
:100460000948804709480047FEE7FEE7FEE7FEE748
:10047000FEE7FEE7FEE7FEE7FEE7FEE70448054984
:10048000054A064B70470000D7020008ED0000083F
:1004900058070020580D0020580900205809002056
:1004A00031490143314A1160704770B50021002382
:1004B0000F22C47804B32D4C246804F4E064C4F51E
:1004C000E064210AC1F10403CA40447804FA03F14C
:1004D0008478144021430901254C0678A1550478FD
:1004E00004F01F050124AC4005786D11AD0005F145
:1004F000E025C5F8004109E0047804F01F05012457
:10050000AC401C4D0678761145F8264070BD1A4A5D
:100510000A400243154B1B1F1A60704739B1134A3A
:10052000121D12680243114B1B1D1A6006E00F4A90
:10053000121D126882430D4B1B1D1A607047042860
:1005400008D14FF0E021096941F004014FF0E022A9
:10055000116107E04FF0E021096921F004014FF03B
:10056000E0221161704700000000FA050CED00E088
:1005700000E400E080E100E080FFFF1F10B50446CA
:10058000FA48844208D10121401500F0ABFE002159
:10059000601500F0A7FE17E0F548844208D101215C
:1005A000001500F09FFE0021201500F09BFE0BE0DF
:1005B000F048844208D10121C80300F093FE0021D5
:1005C0004FF4004000F08EFE10BD30B50246002012
:1005D00000235068E84C20400D790C6844EA05245B
:1005E000204350609068E54C2040D1E902542C43F0
:1005F0004D7944EA450420439060D06A20F47000AD
:100600000C7C641EE4B2234340EA0350D06230BD48
:1006100000210160017141718160C160012101749B
:10062000704721B1826842F00102826003E0826873
:1006300022F001028260704721B1826842F4807228
:10064000826003E0826822F480728260704710B595
:100650000023CBB21AB144681C43446002E04468F2
:100660009C43446010BD816841F00801816070477F
:10067000014600208A6802F008020AB1012000E069
:1006800000207047816841F0040181607047014695
:1006900000208A6802F004020AB1012000E0002074
:1006A000704721B1826842F4A002826003E0826850
:1006B00022F4A00282607047014600208A6802F49A
:1006C00080020AB1012000E00020704710B50A4600
:1006D00000210023416821F46041531E41EA433167
:1006E000416010BD21B1426842F40062426003E003
:1006F000426822F4006242607047F0B504460D463D
:1007000000200021092D11DDE068A5F10A0606EBA5
:100710004607072606FA07F18843A5F10A0606EB05
:10072000460603FA06F10843E0600CE0206905EB99
:100730004507072606FA07F1884305EB450603FA45
:1007400006F108432061072A0FDA606B561E06EB9C
:1007500086071F2606FA07F18843561E06EB860613
:1007600005FA06F10843606322E00D2A0FDA206BD8
:10077000D61F06EB86071F2606FA07F18843D61F09
:1007800006EB860605FA06F10843206310E0E06AEE
:10079000A2F10D0606EB86071F2606FA07F188432D
:1007A000A2F10D0606EB860605FA06F10843E062A3
:1007B000F0BD21B1826842F48012826003E0826859
:1007C00022F48012826070470146C86C80B2704784
:1007D00066484C300068704721B1426842F480623C
:1007E000426003E0426822F480624260704721B1B7
:1007F000426842F48052426003E0426822F4805230
:10080000426070470A460021816821F4E0411143AB
:100810008160704721B1826842F40042826003E047
:10082000826822F400428260704721B1826842F4FB
:100830000212826003E0826822F402128260704732
:10084000014600208A6802F400120AB1012000E08B
:1008500000207047F0B5044615460020002200260F
:10086000092911DDE068A1F10A0707EB470C07270A
:1008700007FA0CF29043A1F10A0707EB470703FAC6
:1008800007F21043E0600CE0206901EB410C072700
:1008900007FA0CF2904301EB410703FA07F2104309
:1008A0002061A06BC0F30156EF1C06F1010CA7EB11
:1008B0000C0707EB870C1F2707FA0CF29043EF1C7D
:1008C00006F1010CA7EB0C0707EB870701FA07F20B
:1008D0001043A063F0BD10B50A4600210023816BD0
:1008E00021F44011531E41EA0351816310BD08B544
:1008F000002300930090009B0B440093009B1A6020
:1009000008BD08B5024600200090009201F12800C1
:10091000009B184400900098006880B208BD0A4609
:1009200000214168164B19401143416070474162F4
:10093000826270470A460021416821F01F0111437D
:100940004160704740B109490831096841F400012C
:10095000064A0832116007E004490831096821F4A9
:100960000001024A08321160704700000024014073
:1009700000280140003C0140FFFEF0FFFDF7F1FFC1
:10098000FFFD3FFF0246002013680B400BB1012022
:1009900000E000207047CA430260704770B502460D
:1009A0000020002300240B125568CEB205EA06048D
:1009B00015681D4015B10CB1012000E0002070BD8C
:1009C00000220A12D34303607047000010B50120D3
:1009D00000F0A2FC002000F09FFC10BD2A49086036
:1009E00070472949091F086070472749843108600A
:1009F000704701460020254A10884FF67F4210407C
:100A00000843224A10807047014600201F4A108880
:100A10004FF68072104008431C4A1080704708B59A
:100A200000220092194A2C3A0092009A0244009245
:100A3000009A116008BD08B50146002000901348D7
:100A40002C3800900098084400900098008808BD59
:100A50000D489C300068C0B270470C4808300088D0
:100A600040F0010009490831088070470648A0306D
:100A70000068C0B2704705480830008840F00200A6
:100A8000024908310880704704860D422C6C0040F2
:100A9000002044490860091D0860091D0860091DFF
:100AA000086041483F4914310860704700213D49C2
:100AB0008279002A3AD00A46126803689A430B46A4
:100AC0001A600A1D126803689A430B1D1A600279A6
:100AD00011440A6803681A430A60324A08321268ED
:100AE00003689A432F4B08331A601A1D1268036873
:100AF0009A432C4B0C331A604279102A0ED11A1FDC
:100B0000126803681A43274B08331A601A1D1268CB
:100B100003681A43234B0C331A600DE021494279D4
:100B200011440A6803681A430A6005E00279114417
:100B30000A6803689A430A607047002101600171E6
:100B40000C214171002181717047164910310968EB
:100B50000143144A10321160704701460020114AC7
:100B6000143212680A400AB1012000E000207047E8
:100B70000C49143108607047014600200022094BDF
:100B80001B6803EA0102074B14331B680B4013B1C7
:100B90000AB1012000E000207047024914310860CA
:100BA0007047000000040140FFFF0F0010B504462D
:100BB000CC48844208D10121042000F093FB00219D
:100BC000042000F08FFB46E0C748844208D1012191
:100BD000082000F087FB0021082000F083FB3AE0AA
:100BE000C248844208D10121102000F07BFB002183
:100BF000102000F077FB2EE0BD48844208D101218F
:100C0000202000F06FFB0021202000F06BFB22E091
:100C1000B848844208D10121402000F063FB002144
:100C2000402000F05FFB16E0B348844208D1012168
:100C3000802000F057FB0021802000F053FB0AE0E9
:100C4000AE48844207D10121801500F04BFB002102
:100C5000A01500F047FB10BD10B50121084600F0BB
:100C600041FB0021012000F03DFB10BD2DE9F041CA
:100C7000024600250026002000230024002791F8CA
:100C800003C00CF00F0591F803C00CF0100CBCF180
:100C9000000F03D091F802C04CEA050591F800C09E
:100CA000BCF1000F31D0146800202BE04FF0010C94
:100CB0000CFA00F3B1F800C00CEA03069E4220D102
:100CC00083004FF00F0C0CFA03F7BC4305FA03FC4A
:100CD0004CEA040491F803C0BCF1280F06D14FF090
:100CE000010C0CFA00FCC2F814C00AE091F803C031
:100CF000BCF1480F05D14FF0010C0CFA00FCC2F812
:100D000010C0401C0828D1D31460B1F800C0BCF159
:100D1000FF0F34DD546800202EE000F1080C4FF086
:100D2000010808FA0CF3B1F800C00CEA03069E4271
:100D300021D183004FF00F0C0CFA03F7BC4305FAE6
:100D400003FC4CEA040491F803C0BCF1280F05D160
:100D500000F1080C08FA0CF8C2F8148091F803C0EE
:100D6000BCF1480F07D100F1080C4FF0010808FA58
:100D70000CF8C2F81080401C0828CED35460BDE89F
:100D8000F0814FF6FF710180022181700421C17052
:100D900070470246002093680B400BB1012000E031
:100DA000002070470146886880B2704702460020E4
:100DB000D3680B400BB1012000E0002070470146D2
:100DC000C86880B2704701617047416170470AB1DD
:100DD000016100E041617047C16070474FF48032AB
:100DE0000A43826181618261826982697047024639
:100DF0000020434B18684FF68073184040EA0210F9
:100E000008433F4B186070473E49C8617047F0B5D2
:100E10000A46002300240021002500F00046B6F118
:100E2000004F02D1364EF16901E0354E7168C0F3D2
:100E3000034583B200F44016B6F5401F08D121F0F7
:100E400070612F4E766826F070662D4F7E6012E03E
:100E500000F48016B6F5801F06D1032606FA05F4C5
:100E6000A14341F0706106E0460D360103FA06F633
:100E7000B14341F0706122B1460D360103FA06F626
:100E8000314300F00046B6F1004F02D11C4EF16133
:100E900001E01B4E7160F0BD30B500228B071C0FC6
:100EA0000F2303FA04F2164B08338C1053F8243046
:100EB0009343134C08348D1044F8253023468C108E
:100EC00053F824308C07240F00FA04F423430C4C0D
:100ED00008348D1044F8253030BD0A49DC310860F3
:100EE0007047000000080140000C01400010014064
:100EF0000014014000180140001C01400020014086
:100F0000000001400000204210B50121080700F058
:100F1000F6F900214FF0805000F0F1F910BD2A4998
:100F20000862704728490861704701460020274A37
:100F3000106820F0E0000843106070472249A0319B
:100F40000860704710B502460020204B186820F05A
:100F50000300104318601E4B1B6843F004031C4C35
:100F60002360012901D130BF00E020BF184B1B686E
:100F700023F00403164C236010BD1448006840F0B1
:100F80000400124908600846006840F0020008604A
:100F90000F48006840F004000D49086000BF00BF22
:100FA00030BF704701460020084A52680A400AB123
:100FB000012000E0002070470449096841EA8001EF
:100FC000024A11607047000000000E4200700040AD
:100FD00010ED00E0DF48006840F00100DD490860E6
:100FE00008464068DC490840DA494860084600681D
:100FF000DA490840D74908600846006820F4802094
:1010000008600846406820F4FE0048604FF41F0066
:1010100088607047CF49096821F48031CD4A11605A
:101020001146096821F480211160B0F5803F03D09A
:10103000B0F5802F0ED106E0C649096841F4803131
:10104000C44A116007E0C349096841F4A021C14ABC
:10105000116000E000BF00BF704710B501460022DC
:10106000002300204A11012A02D1BA4C236806E06D
:10107000022A02D1B74C236A01E0B64C636A01F040
:101080001F02012494401C400CB1012000E000200C
:1010900010BD38B5002000900024002500BF31208D
:1010A000FFF7DBFF05460098401C00900098B0F564
:1010B000A06F01D0002DF2D03120FFF7CEFF08B194
:1010C000012400E00024204638BD01460020A14A4A
:1010D000106820F0F80040EAC10010607047A04995
:1010E00008607047024600209A4B586820F47C1034
:1010F00042EA01031843974B5860704798490866C5
:10110000704701460020934A506820F003000843CE
:10111000506070478F48406800F00C0070470146EF
:1011200000208C4A506820F0F0000843506070475F
:1011300001460020874A506820F4E0600843506070
:10114000704701460020834A506820F4605040EA0E
:10115000C1005060704729B17E4A527A02437D4BEC
:101160005A7204E07B4A527A82437A4B5A72704731
:101170007B49D8310860704701460020754A5068A5
:1011800020F440400843506070470021714A2032EB
:101190001170704A82F82010012802D004280AD168
:1011A00004E001216B4A2032117005E00521694AF3
:1011B0002032117000E000BF00BF7047694908602D
:1011C00070476449096A0143624A11627047654980
:1011D00044390860704730B5002100220024002304
:1011E0005C4D6D6805F00C0121B1042905D008297A
:1011F00023D105E05C4D056022E05B4D05601FE0FA
:10120000544D6D6805F47012524D6D6805F48034CC
:10121000022505EB92421CB9544D554305600BE085
:101220004C4D6D6805F400351DB1504D55430560BA
:1012300002E04D4D5543056002E04B4D056000BF97
:1012400000BF444D6D6805F0F0010909484D6B5C25
:101250000568DD4045603F4D6D6805F4E061090AB1
:10126000434D6B5C4568DD4085603A4D6D6805F423
:101270006051C90A3E4D6B5C4568DD40C560354D27
:101280006D6805F44041890B3A4D6B5CC568B5FB50
:10129000F3F5056130BD29B12E4A526902432D4B49
:1012A0005A6104E02B4A526982432A4B5A617047C3
:1012B00029B1284A92690243264B9A6104E0254AE3
:1012C00092698243234B9A61704729B1214AD269BE
:1012D0000243204BDA6104E01E4AD26982431D4B6F
:1012E000DA61704729B11B4AD2680243194BDA60B0
:1012F00004E0184AD2688243164BDA60704729B17D
:10130000144A12690243134B1A6104E0114A12692C
:101310008243104B1A617047124940390860704788
:101320000F49C86470470B49C87170470948406A43
:1013300040F0807007494862704701460020054A26
:1013400092680A400AB1012000E00020704701497C
:1013500088727047001002400000FFF8FFFFF6FEA1
:10136000000042428004424200127A0000093D001F
:101370005C0000206C00002010B50446FE4884424A
:1013800008D10121C014FFF7ADFF0021E014FFF7E1
:10139000A9FFC4E0B4F1804F08D101210846FFF74E
:1013A000AEFF00210120FFF7AAFFB8E0F348844216
:1013B00008D101210220FFF7A2FF00210220FFF740
:1013C0009EFFACE0EE48844208D101210420FFF7E3
:1013D00096FF00210420FFF792FFA0E0E948844235
:1013E00008D101210820FFF78AFF00210820FFF71C
:1013F00086FF94E0E448844208D101211020FFF7E1
:101400007EFF00211020FFF77AFF88E0DF4884424A
:1014100008D101212020FFF772FF00212020FFF7D3
:101420006EFF7CE0DA48844208D101214014FFF7C6
:1014300059FF00216014FFF755FF70E0D548844242
:1014400009D10121C804FFF74DFF00214FF400200E
:10145000FFF748FF63E0D048844209D10121080525
:10146000FFF740FF00214FF48010FFF73BFF56E0ED
:10147000CA48844209D101214805FFF733FF002102
:101480004FF40010FFF72EFF49E0C548844208D111
:1014900001214020FFF733FF00214020FFF72FFFFD
:1014A0003DE0C048844208D101218020FFF727FF9A
:1014B00000218020FFF723FF31E0BB48844208D1A0
:1014C00001218015FFF71BFF0021A015FFF717FF73
:1014D00025E0B648844209D101210804FFF702FF44
:1014E00000214FF48030FFF7FDFE18E0B048844241
:1014F00009D101214804FFF7F5FE00214FF4003027
:10150000FFF7F0FE0BE0AB48844208D101218804CC
:10151000FFF7E8FE00214FF48020FFF7E3FE10BD47
:1015200000220288944B98420ED0994B98420BD0DF
:10153000B0F1804F08D0914B984205D0904B984223
:1015400002D0904B984204D14FF68F731A404B88CB
:101550001A438D4B984207D08C4B984204D04FF6DB
:10156000FF431A40CB881A4302808B8883850B88FF
:101570000385814B98420BD0854B984208D08B4B0A
:10158000984205D08A4B984202D08A4B984201D1AA
:101590000B7A038601238382704770B500240022F2
:1015A0000023058C4FF6FE7635400584028C838837
:1015B000048B4FF68F752C40B51E2C400D882C43A4
:1015C000751E2A400D892A434D882A436A4DA84238
:1015D0000BD06F4DA84208D0744DA84205D0744D71
:1015E000A84202D0734DA84213D14FF6F7752A4096
:1015F0004D892A434FF6FB752A408D882A434FF6C2
:10160000FF652B404FF6FF552B408D892B43CD892D
:101610002B4383800483CD888586028470BD70B59A
:10162000002400220023058C4FF6EF763540058418
:10163000028C8388048B48F6FF752C404FF6FF45DB
:101640002C400D884FF6FF7606EA05252C434FF611
:10165000DF752A400D8906EA05152A434D8806EAFA
:1016600005152A43444DA84202D0494DA8421DD138
:101670004FF67F752A404D894FF6FF7606EA05152D
:101680002A434FF6BF752A408D8806EA05152A437E
:101690004FF6FF352B404FF2FF752B408D8906EA40
:1016A00085052B43CD8906EA85052B43838004837A
:1016B000CD880587028470BD70B500240022002308
:1016C000058C4FF6FF6635400584028C8388848B39
:1016D0004FF68F752C404FF6FC752C400D882C432F
:1016E0004FF6FF552A400D894FF6FF7606EA05258D
:1016F0002A434D8806EA05252A431F4DA84202D0F9
:10170000234DA8421DD14FF2FF752A404D894FF657
:10171000FF7606EA05252A434FF6FF352A408D88D5
:1017200006EA05252A434EF6FF752B404DF6FF7558
:101730002B408D8906EA05152B43CD8906EA051550
:101740002B4383808483CD888587028470BD70B5E8
:10175000002200230024058C4EF6FF7635400584D8
:10176000038C8488828B48F6FF752A404FF6FF452C
:101770002A400D8820E00000002C014000040040B9
:1017800000080040000C0040001000400014004021
:1017900000340140004C0140005001400054014021
:1017A00000180040001C00400020004000400140A4
:1017B00000440140004801404FF6FF7606EA052547
:1017C0002A434DF6FF752B400D8906EA05352B435C
:1017D0004D8806EA05352B43FA4DA84202D0FA4D52
:1017E000A84208D14BF6FF752C408D894FF6FF7645
:1017F00006EA85152C4384808283CD88A0F840506A
:10180000038470BD828B4FF2FF331A408283828B38
:101810004FF6FF7303EA01231A4382837047F0B542
:101820000C461546002200210026078C4EF6FF7C50
:1018300007EA0C070784828B018C4FF6FF7707EAD3
:10184000043640F6FF473A404FF6FF7707EA052790
:101850003A434FF6FF7707EA03373A43D94FB84286
:101860000ED0D94FB8420BD0B0F1804F08D0D74F2F
:10187000B84205D0D64FB84202D0D64FB84206D1B2
:101880004DF6FF77394046F48057394305E047F677
:10189000FF57394044F48057394382830184F0BDB7
:1018A000828B4FF6F3731A408283828B0A438283C2
:1018B0007047F0B50C461546002200210026078C23
:1018C0004FF6FF6C07EA0C070784828B018C4FF6FA
:1018D000FF7707EA04264FF60C773A404FF6FF777A
:1018E00007EA03172F433A43B64FB8420ED0B64F1C
:1018F000B8420BD0B0F1804F08D0B44FB84205D0F9
:10190000B34FB84202D0B34FB84206D14FF6FF579B
:10191000394046F48077394305E04FF2FF573940AC
:1019200044F48077394382830184F0BD028B4FF207
:10193000FF331A400283028B4FF6FF7303EA012341
:101940001A4302837047F0B50C4615460022002169
:101950000026078C4FF6EF7C07EA0C070784028B02
:10196000018C4FF6FF7707EA041640F6FF473A402E
:101970004FF6FF7707EA03373A434FF6FF7707EA58
:1019800005273A438F4FB8420ED08F4FB8420BD045
:10199000B0F1804F08D08D4FB84205D08C4FB8427F
:1019A00002D08C4FB84206D14FF6DF77394046F06F
:1019B0001007394305E04FF65F77394044F01007D0
:1019C000394302830184F0BD028B4FF6F3731A4052
:1019D0000283028B0A4302837047F0B50C4615461A
:1019E00000220021068C4FF6FE773E400684028BD3
:1019F000018C4FF60C7632407E1C06EA03162E430D
:101A00003243704EB0420ED06F4EB0420BD0B0F1A8
:101A1000804F08D06D4EB04205D06D4EB04202D01E
:101A20006C4EB04206D14FF6FD76314044F00106CF
:101A3000314305E04FF6F576314044F0010631437D
:101A400002830184F0BD70B505460C465D488542B1
:101A50000ED05D4885420BD0B5F1804F08D05B4871
:101A6000854205D05A48854202D05A48854200D165
:101A700000E000BF208850B92389A28861882846E9
:101A8000FFF7ABFFE1882846FFF79EFF25E020889F
:101A900004280AD12389A28861882846FFF753FFCA
:101AA000E1882846FFF742FF17E0208808280AD17E
:101AB0002389A28861882846FFF7FBFEE188284633
:101AC000FFF7EEFE09E02389A28861882846FFF728
:101AD000A6FEE1882846FFF795FE70BD2DE9F0418E
:101AE00005460C4600260127608808B9022600E05A
:101AF0000026A088012801D1022700E001272088C4
:101B0000A0B92389A28861882846FFF766FFE1888B
:101B10002846FFF759FF23893A4631462846FFF702
:101B200012FFE1882846FFF701FF13E02389A2880E
:101B300061882846FFF707FFE1882846FFF7F6FE91
:101B400023893A4631462846FFF747FFE188284671
:101B5000FFF73AFFBDE8F0810A884B881A438B886B
:101B60001A43CB881A430B891A434B891A438B8932
:101B70001A43A0F8442070474FF6FF71818000217E
:101B80000180C18041800172704700210180418045
:101B90008180C180018141818181C18170470021A3
:101BA00001804180012181800021C1800181704735
:101BB0000021018041808180C1800181418181813A
:101BC00070470000002C0140003401400004004038
:101BD00000080040000C004021B1028842F00102E0
:101BE000028004E002884FF6FE731A4002807047BC
:101BF00031B1B0F8442042F40042A0F8442005E09E
:101C0000B0F84420C2F30E02A0F8442070471AB185
:101C100083890B43838102E083898B4383817047EF
:101C20008182704741EA0203A0F8483070471AB138
:101C300083890B43838102E083898B4383817047CF
:101C400001894FF6F8721140018170470A46002160
:101C500001894FF68F73194011430181704730B5E8
:101C600004460D4629462046FFF7F0FF208940F044
:101C70000700208130BD2DE9F04104460D4616468F
:101C80001F46602D06D13B46012231462046FFF714
:101C90005AFE05E03B46012231462046FFF79DFEF5
:101CA00029462046FFF7D2FF208940F00700208117
:101CB000BDE8F08130B50C4600210189C9B24FF66C
:101CC000FF7505EA0325154325432943018130BDEE
:101CD0002DE9F04105460E46174698460024434636
:101CE0003A4631462846FFF7E5FF2C894FF6F87053
:101CF000044044F007044FF68F70044044F0700431
:101D00002C81BDE8F081F0B504460D4616461F460D
:101D10003B46324629462046FFF7CCFF208940F457
:101D200080402081F0BD0185828270470A460021F3
:101D300001884FF68F731940114301807047F0B549
:101D40000C4615461E460021002200230189028B05
:101D5000038C4FF6F877394021434FF6FC473A4061
:101D600040F201173A434FF6DD773B404FF6FF77DD
:101D700007EA06172F433B43018102830384F0BD2A
:101D80000A460021018B4FF68F73194011430183DE
:101D900070470A460021018B48F6FF7319404FF641
:101DA000FF7303EA02231943018370470A460021A7
:101DB000818B4FF68F7319401143818370470A4618
:101DC0000021818B48F6FF7319404FF6FF7303EA39
:101DD000022319438183704721B1028842F08002B7
:101DE000028004E002884FF67F731A400280704739
:101DF00021B1828842F00402828004E082884FF69A
:101E0000FB731A408280704721B1828842F0080239
:101E1000828004E082884FF6F7731A408280704710
:101E200021B1828842F00102828004E082884FF66C
:101E3000FE731A40828070470A460021018B4FF6DC
:101E4000F77319401143018370470A460021018B43
:101E50004FF2FF7319404FF6FF7303EA0223194351
:101E6000018370470A460021818B4FF6F7731940B2
:101E70001143818370470A460021818B4FF2FF7323
:101E800019404FF6FF7303EA022319438183704719
:101E90000A460021018B4FF6FB7319401143018361
:101EA00070470A460021018B4FF6FF3319404FF669
:101EB000FF7303EA02231943018370470A46002196
:101EC000818B4FF6FB7319401143818370470A469B
:101ED0000021818B4FF6FF3319404FF6FF7303EA61
:101EE00002231943818370470A460021018B4FF674
:101EF0007F7319401143018370470A460021018B0B
:101F0000C1F30E014FF6FF7303EA02231943018365
:101F100070470A460021818B4FF67F7319401143A9
:101F2000818370470A460021818BC1F30E014FF671
:101F3000FF7303EA02231943818370470A46002195
:101F4000018C4FF6FD7319401143018470470A4616
:101F50000021018C4FF6F77319401143018470473B
:101F60000A460021018C4FF6DF7319404FF6FF73CC
:101F700003EA02131943018470470A460021018CC9
:101F80004FF67F7319404FF6FF7303EA02131943AC
:101F9000018470470A460021018C4FF6FF53194017
:101FA0004FF6FF7303EA02231943018470470A4680
:101FB0000021018C4FF2FF7319404FF6FF7303EAC3
:101FC00002231943018470470A460021018C4DF613
:101FD000FF7319404FF6FF7303EA0233194301847C
:101FE000704730B5002301248C40A3B2048C9C437D
:101FF0000484048C02FA01F5ADB22C43048430BD94
:1020000030B5002304248C40A3B2048C9C43048488
:10201000048C02FA01F5ADB22C43048430BD70B5D6
:102020000346002000241846183001258D40ACB22C
:102030001D8CA5431D8409B1082909D100EB61005D
:10204000056825F0700505600568154305600EE01C
:102050000D1FC5F34E052844056825F4E0450560CD
:1020600005684FF6FF7606EA02263543056070BD27
:1020700021B1028842F00202028004E002884FF699
:10208000FD731A400280704721B1028842F00402B9
:10209000028004E002884FF6FB731A40028070470A
:1020A00021B1828842F08002828004E082884FF66B
:1020B0007F731A408280704702884FF6F7731A4088
:1020C000028002880A430280704782884FF68F732D
:1020D0001A40828082880A438280704702894FF6C4
:1020E000F8731A40028102890A430281704702890B
:1020F0004FF67F731A40028102890A4302817047BA
:102100008184704781857047818670470187704759
:1021100081877047A0F84010704702884FF6FF4350
:102120001A40028002880A43028070470146888E66
:1021300070470146088F70470146888F70470146F7
:10214000B1F8400070470146888C70470146088D01
:10215000704702460020138A0B400BB1012000E0BB
:1021600000207047CA430282704730B50246002003
:1021700000230024158A05EA0103958905EA010474
:1021800013B10CB1012000E0002030BDCA4302822F
:102190007047000010B50446FB48844209D1012174
:1021A0008803FFF79FF800214FF48040FFF79AF86B
:1021B00032E0F648844209D101214804FFF79FF834
:1021C00000214FF40030FFF79AF825E0F0488442F0
:1021D00009D101218804FFF792F800214FF48020F3
:1021E000FFF78DF818E0EB48844209D10121C804BB
:1021F000FFF785F800214FF40020FFF780F80BE08F
:10220000E548844208D101210805FFF778F800214C
:102210004FF48010FFF773F810BD2DE9F04786B03A
:1022200005460E460024A24600BFA1460027B089FD
:1022300000B100BF2F462C8A4CF6FF700440F08896
:1022400004432C82AC894EF6F3100440B0883189E7
:102250000843718908430443AC81AC8A4FF6FF40C0
:102260000440B0890443AC8201A8FEF7B4FFC6481D
:10227000874202D1DDF810A001E0DDF80CA0A889AA
:1022800000F4004040B10AEBCA0000EB0A103168CC
:102290004900B0FBF1F807E00AEBCA0000EB0A10B6
:1022A00031688900B0FBF1F86420B8FBF0F004015C
:1022B0002009642101FB1089A88900F4004040B185
:1022C000322000EBC900B0FBF1F000F0070004433E
:1022D00008E0322000EB09106421B0FBF1F000F0BF
:1022E0000F0004432C8106B0BDE8F0874FF416516F
:1022F000016000218180C18001810C214181002188
:102300008181704710B502460020108A4FF2FF030A
:1023100018400B884C8823438C882343CC88234364
:102320001843108210BD0021018041808180C1804E
:10233000704721B1828942F40052828104E082898F
:102340004DF6FF731A4082817047F0B503460024B2
:1023500000260025002040F66A17B94200D100BFD0
:102360001846C1F3421401F01F06012707FA06F5CB
:10237000012C01D10C3004E0022C01D1103000E01E
:1023800014301AB107682F43076002E00768AF43B3
:102390000760F0BD1AB1838A0B43838202E0838A0F
:1023A0008B4383827047028A4FF6F0731A40028291
:1023B000028A0A430282704782894FF2FF731A40F1
:1023C000828182890A438281704721B1828942F0E9
:1023D0000202828104E082894FF6FD731A408281F5
:1023E0007047028A4FF6DF731A400282028A0A435C
:1023F0000282704721B1028A42F48042028204E0E4
:10240000028A4BF6FF731A4002827047C1F308023A
:102410008280704701468888C0F308007047818930
:1024200041F0010181817047028BD2B20283028B9D
:1024300042EA012202837047028B02F47F42028348
:10244000028B0A430283704721B1828A42F0200244
:10245000828204E0828A4FF6DF731A4082827047DC
:1024600021B1828A42F01002828204E0828A4FF611
:10247000EF731A408282704721B1828A42F00802CB
:10248000828204E0828A4FF6F7731A408282704794
:1024900021B1828942F40042828103E08289C2F341
:1024A0000E028281704721B1828A42F400628282E8
:1024B00004E0828A4FF2FF731A4082827047828A58
:1024C0004FF6FB731A408282828A0A4382827047E7
:1024D00021B1828A42F00202828204E0828A4FF6AF
:1024E000FD731A408282704702460020B1F5007FDA
:1024F00000D100BF13880B400BB1012000E0002089
:10250000704701F40072B2F5007F00D100BFCA43EA
:102510000280704770B50246002400230025002089
:1025200040F66A16B14200D100BFC1F3421501F076
:102530001F03012606FA03F3012D02D196893340C9
:1025400006E0022D02D1168A334001E0968A33401C
:102550000C12012606FA04F41688344013B10CB1AB
:10256000012000E0002070BD10B50022002340F6DD
:102570006A14A14200D100BF0A1201249440A3B200
:10258000DC43048010BD00000038014000440040DE
:1025900000480040004C00400050004010B56FF073
:1025A0000400FDF7CCFF2E4800682E49B0FBF1F087
:1025B0002D4908700846007800EB4001C1EBC010BF
:1025C0004FF6FF7101EAC0002849088010BD01469E
:1025D000254A12784A434FF0E0235A6100229A615B
:1025E0001A46126942F001021A6100BF4FF0E02260
:1025F000106900F001021AB100F48032002AF5D00F
:102600004FF0E022126922F001024FF0E0231A613C
:1026100000229A6170470146144A12884A434FF0DB
:10262000E0235A6100229A611A46126942F00102BF
:102630001A6100BF4FF0E022106900F001021AB1E8
:1026400000F48032002AF5D04FF0E022126922F027
:1026500001024FF0E0231A6100229A6170470000E6
:102660000000002000127A0070000020720000209C
:10267000A34A0A400243A34B1A607047014607234E
:1026800023EA010212029F4B1B1D18684FF6FF033D
:1026900018409D4B184310439A4B1B1D1860704700
:1026A0002DE9F0410746884614461D462846FFF7A7
:1026B000E5FFC5F1040007FA00F60F20284100EA03
:1026C0000800064306F00F06E21704EBD26252112F
:1026D000920002F1E022D2F800212146E31704EB38
:1026E000D3635B11A4EB431C012303FA0CF31A43DD
:1026F0002046E31704EBD3635B119B0003F1E02357
:10270000C3F800218148005D40EA06107F49085562
:10271000BDE8F08170B504460B46CE1701EB967606
:10272000C6F38700CE1701EB9676B610A1EB8606AE
:10273000B606350E764B9B6943F00103744EB361C8
:102740004FEAB63353F820300F26AE40B343714EF4
:1027500046F82030334653F8203004FA05F61E437D
:102760006C4B43F820606C4B1B6801268E40334352
:10277000694E336002F0010343B1674B0C331B68B1
:1027800001268E403343644E0C36336002F0020360
:1027900043B1614B08331E6801238B401E435E4BDF
:1027A00008331E6070BD00B5002059490861C8603B
:1027B0001420486100208861C8610846006840F024
:1027C0000100086008464068544908405049486084
:1027D00008460068524908404D49086008460068AC
:1027E00020F4802008600846406820F4FE0048601D
:1027F0000020886000214FF00060FFF739FF00BD26
:1028000010B540480830006840F004003D490831E8
:1028100008603F48C06940F080503D49C861414868
:10282000406840F480703F4948600846006840F0C6
:10283000040008600846006840F002000860FDF7E8
:10284000C7FC10BD3048001D2E49091D08607047A7
:10285000014649062E4A926942F001022C4B9A61C8
:102860002C4A083A526822F0E0622A4B083B5A6030
:102870001A4652680A435A60704730B5044600252C
:10288000FFF791FF2248006840F48030204908603B
:1028900000BF1F480068400C0028FAD04FF4806049
:1028A0001B494860A01EC4B20846406840EA844004
:1028B00048600846406840F4803048601A48006824
:1028C00040F03200184908601148006840F08070FC
:1028D0000F49086000BF0E480068400E0028FAD07B
:1028E0000B48406840F002000949486005E008488C
:1028F0004068C0F3870505F00305022DF7D130BD10
:1029000080FFFF1F08ED00E00000FA0500E400E092
:102910000010024008000140000401400000FFF8E0
:10292000FFFFF6FE007000400020024000BF70472D
:102930002C4A12785AB900BF2B4A128802F0400282
:10294000002AF9D0C2B2284B1B1D1A800AE000BF32
:10295000264A128802F04002002AF9D0C2B2234B64
:102960001B1D1A80704710B586B00446012144F241
:102970000400FEF79DFC4FF40070ADF81400032036
:102980008DF8160018208DF8170005A91848FEF7D5
:102990006DF94FF48060ADF8140004208DF8170035
:1029A00005A91348FEF762F901940020ADF808006C
:1029B000ADF80A00ADF80C00ADF810000C20ADF831
:1029C0000E0001A90948FFF728FC002240F225511A
:1029D0000648FFF7BAFC01210448FFF7AAFC06B03D
:1029E00010BD00001B0000200048004000380140DE
:1029F0000008014008B501210420FEF759FC102011
:102A0000ADF800008DF8030003208DF80200694640
:102A10000C48FEF72BF908BD18B900210A4A1160CD
:102A20000FE00A490968491C084A1160814208D12F
:102A300005490968C943064AC2F890110021034AB2
:102A40001160704700080140900121427800002089
:102A50000000214208B501210420FEF729FC2020B6
:102A6000ADF8000048208DF8030069464B48FEF79A
:102A7000FDF808BD01464A48006828B94948008861
:102A8000401C484A108002E00020464A108044481A
:102A9000006828B94448007810B90120424A1070F3
:102AA00042480078B0B940480078012807D1404832
:102AB0000078401C3E4A107001203C4A10703C488F
:102AC0000078022806D10020394A1070394A108057
:102AD0000220704732480068012804D10020324AA1
:102AE0001070324A10703248007801281CD13148E9
:102AF0000088401C2F4A10801046008888420ADD5A
:102B000028480088884206DA0020294A1070294A9D
:102B100010800120DDE723480088884204DD002082
:102B2000234A1070234A10800020D2E72248007800
:102B300038B11B48006820B900201F4908700120E7
:102B4000704717480068012801D11B490870002010
:102B5000F6E71A48008840B91148006828B91848B3
:102B60000088401C1649088002E0002014490880B3
:102B700013480088C82807DD01201049088000207C
:102B80000F490880012070470C480088012802D1B5
:102B900000200A4908800020F5E7000000080140F5
:102BA00014012142820000207C0000207D000020D2
:102BB0007E0000208000002084000020880000208B
:102BC0008600002010B50A461AB10123FE4C23608E
:102BD00002E00023FC4C2360002114E00023FB4CA6
:102BE000236000F080031BB10123241F236003E056
:102BF0000023F64C241F23600123F44C236043067A
:102C0000180E4B1CD9B20829E8DB0123EE4C2360D7
:102C100010BD30B500241CE004F1B001C8B20021A1
:102C2000FFF7D0FF00210846FFF7CCFF002110205E
:102C3000FFF7C8FF002508E0E54901EBC501085D85
:102C40000121FFF7BFFF681CC5B2802DF4DB601CBB
:102C5000C4B2082CE0DB30BD00B500218D20FFF7A9
:102C6000B1FF00211420FFF7ADFF0021AF20FFF7D7
:102C7000A9FF00BD00B500218D20FFF7A3FF0021B3
:102C80001020FFF79FFF0021AE20FFF79BFF00BD44
:102C900030B500240CE0002506E00020CC4901EB13
:102CA000C5010855681CC5B2802DF6DB601CC4B296
:102CB000082CF0DBFFF7ADFF30BDF0B51446002661
:102CC0007F2801DC3F2900DDF0BD0B46CF1701EB6B
:102CD0005777FF10C7F10707FAB2CF1701EB577705
:102CE000FF10A1EBC707FDB2C5F107070123BB40E9
:102CF000DEB24CB1B64B03EBC0039B5C3343B44F25
:102D000007EBC007BB5408E0B14B03EBC0039B5C6F
:102D1000B343AF4F07EBC007BB5400BFD4E72DE967
:102D2000F04F80460C4615461E46A346A5F12000EE
:102D3000C5B200273EE00C2E07D105EB4500A549A2
:102D400001EB800010F8079004E0A34800EB0510A9
:102D500010F807904FF0000A26E009F0800028B133
:102D600021464046099AFFF7A8FF09E0099808B9EB
:102D7000012000E00020024621464046FFF79DFF6B
:102D80004FEA49604FEA1069601CC4B2A4EB0B0023
:102D9000B04205D15C4608F1010000F0FF0806E0F2
:102DA0000AF1010000F0FF0ABAF1080FD5DB00BFFD
:102DB000781CC7B2B742BEDBBDE8F08F10B5024643
:102DC000012000E050430B1EA1F10104E1B2F9D152
:102DD00010BD2DE9FF4F81B0074691461E460E9D5E
:102DE0004FF0000A002439E0301B401EC1B20A2017
:102DF000FFF7E4FFB9FBF0F00A21B0FBF1F201FBB1
:102E00001208BAF1000F16D1701EA04213DDB8F1FE
:102E1000000F0ED10120AB4605EBDB71491001FB21
:102E200004710090C8B22B4620220299FFF777FF69
:102E300012E04FF0010A0120AB4605EBDB714910AF
:102E400001FB04710090C8B208F13001CAB22B46F0
:102E50000299FFF764FF00BF601CC4B2B442C3DB39
:102E600005B0BDE8F08F78B505460E46144618E06B
:102E70007A2D03DD002506F11000C6B23A2E04DDDE
:102E8000002005460646FFF703FF01200090227848
:102E90000C2331462846FFF742FF05F10800C5B272
:102EA000641C20780028E3D178BD08B501210820F2
:102EB000FEF7FEF93820ADF8000010208DF8030071
:102EC00002208DF8020069464448FDF7CFFE01213B
:102ED0000420FEF7EDF94FF40040ADF800000220A9
:102EE0008DF8020010208DF8030069463C48FDF77C
:102EF000BDFE0120FEF713F80020FEF746F9002082
:102F0000FDF76FFD0020FEF70AF800202F49083971
:102F100008606420FFF77FFB01203249C1F88C0173
:102F20000021AE20FFF74EFE0021D520FFF74AFE1C
:102F300000215020FFF746FE0021A820FFF742FEA7
:102F400000213F20FFF73EFE0021D320FFF73AFE8D
:102F500000210846FFF736FE00214020FFF732FE31
:102F600000218D20FFF72EFE00211420FFF72AFEFE
:102F700000212020FFF726FE00210220FFF722FE7D
:102F80000021A120FFF71EFE0021C020FFF71AFE3E
:102F90000021DA20FFF716FE00211220FFF712FEB3
:102FA00000218120FFF70EFE0021EF20FFF70AFE2F
:102FB0000021D920FFF706FE0021F120FFF702FED5
:102FC0000021DB2010E00000BC012142948121425D
:102FD0000002002026B200089AB60008000C01404A
:102FE0000008014000802142FFF7ECFD0021302065
:102FF000FFF7E8FD0021A420FFF7E4FD0021A62053
:10300000FFF7E0FD0021AF20FFF7DCFDFFF740FEFA
:1030100008BD000000B587B001214FF40270FEF733
:1030200047F94FF40040FEF7A7F80120ADF804007F
:1030300000208DF8070001A93648FDF717FE364835
:10304000FDF79CFA002002908DF80C008DF80D0021
:103050004FF4602004900020059001208DF81800A6
:1030600002A92D48FDF7B1FA01212B48FDF7D9FA45
:103070002948FDF7F8FA00BF2748FDF7F9FA0028BC
:10308000FAD12548FDF7FEFA00BF2348FDF7FFFA05
:103090000028FAD107B000BD10B50446072301226D
:1030A00021461D48FDF729FB01211B48FDF7F9FAD0
:1030B00000BF02211848FDF765FC0028F9D016482A
:1030C000FDF782FB10BD2DE9F04F85B00820FFF71A
:1030D000E3FF019007F026F94FF066320F4BCDE980
:1030E000020107F06FF9804600220D4B07F06AF9E4
:1030F000064600220B4B07F065F9044600220A4BF6
:1031000006F036FF824607F0C7F80490049805B031
:10311000BDE8F08F000C01400024014066660A40C3
:1031200000002640000059400000B04008B50121D1
:103130000820FEF7BDF84FF47040ADF800001020F5
:103140008DF8030003208DF8020069462A48FDF738
:103150008DFD08BD30B589B005460C46FFF7E6FF8A
:103160000121C802FEF7A4F801210420FEF7A0F80F
:103170004FF41060ADF8200018208DF823000320D4
:103180008DF8220008A91D48FDF770FDADF8185014
:10319000ADF814400020ADF81A00ADF8160005A9EE
:1031A0001748FEF7BDF96020ADF804000120ADF826
:1031B00006000020ADF80A00ADF80C0001A9104887
:1031C000FEF7EBF901A90E48FEF7C1FA01210C4800
:1031D000FEF70EFD08210A48FEF72EFE08210848DA
:1031E000FEF749FE01210648FEF7F6FD01210448DD
:1031F000FEF7F2FC09B030BD000C014000080140B0
:10320000002C014000B587B001210220FEF75DF8D7
:1032100001210420FEF74CF8C020ADF80000042086
:103220008DF8030069466148FDF720FD04A8FEF70C
:10323000A3FC0020ADF810004FF6FF70ADF81400AD
:103240000020ADF81600ADF8120004A95848FEF7AA
:1032500067F900231A4603215548FEF770FD01A8BF
:10326000FEF79DFC0A20ADF80C0001A95048FEF7BE
:10327000EAFB01214E48FEF775FF012211464C483A
:10328000FEF7C5FC00214A48FEF73AFF01214848F5
:10329000FEF7A2FC07B000BD00B587B001210420F5
:1032A000FEF713F801210820FEF702F8C020ADF860
:1032B000000004208DF8030069463E48FDF7D6FC67
:1032C00004A8FEF759FC0020ADF810004FF6FF707F
:1032D000ADF814000020ADF81600ADF8120004A9F6
:1032E0003548FEF71DF900231A4603213248FEF740
:1032F00026FD01A8FEF753FC0A20ADF80C0001A939
:103300002D48FEF7A0FB01212B48FEF72BFF0122E1
:1033100011462948FEF77BFC00212748FEF7F0FE06
:1033200001212548FEF758FC07B000BD01460229DF
:1033300004D003290BD004291BD111E04FF08042A7
:10334000928C10B200224FF080439A8413E0184A06
:103350002432128810B20022154B24331A800AE05E
:10336000154A2432128810B20022134B24331A80DB
:1033700001E0002000BF00BF70470F4810300088F8
:103380000D481030008820F001000B4910310880F2
:10339000704707481030008805481030008820F03A
:1033A0000100034910310880704700000008014007
:1033B00000040040000C01400008004008B5012155
:1033C0000820FDF775FF4FF44070ADF800001020A5
:1033D0008DF8030003208DF802006946F748FDF7D9
:1033E00045FC08BD10B5F548001D006820F0F00050
:1033F000F249091D08600846006840F03000086086
:103400000120EF490860EF48D0F8240108B90020F6
:1034100010BD0120EA49091F0860FFF7D8F8002015
:10342000E849C1F8A401E6488038006808B10020E6
:10343000EEE70120FFF7CBF80020E149091F086003
:103440000120E5E710B5DD48001D006820F0F00020
:10345000DA49091D08600846006840F0300008603D
:103460000020D749091F0860D649C1F8A4010120EE
:10347000FFF7ADF80120D249091F0860D149C1F812
:10348000A401FFF7A4F810BD10B50024CB48001D1F
:10349000006820F0F000C949091D0860084600686E
:1034A00040F0800008600120C5490860FFF78FF8F0
:1034B0000120C449C1F8A001FFF789F80AE0601CA7
:1034C000C4B2322C03DDFFF7BDFF002010BD012088
:1034D000FFF77DF8BA48803800680028EFD1B84976
:1034E000091F08600120F1E710B50020B449091F49
:1034F0000860B248001D006820F0F000AF49091DC7
:1035000008600846006840F0300008600020AD49BF
:10351000C1F8A4010120FFF75AF80120A849091FAA
:103520000860FFF754F80020A649C1F8A00110BDBB
:1035300010B50020A249091F0860A048001D0068BE
:1035400020F0F0009D49091D08600846006840F021
:103550003000086001209B49C1F8A401FFF737F84B
:1035600001209749091F0860FFF731F800209549AD
:10357000C1F8A00110BD70B504469048001D006858
:1035800020F0F0008D49091D08600846006840F0F1
:103590003000086000208A49091F0860002516E0F5
:1035A000E009874908606006040E0120FFF70FF864
:1035B00001208449C1F8A001FFF709F800208049E3
:1035C000091F08600120FFF702F8681CC5B2082D2A
:1035D000E6DB70BD2DE9F04105460E4617469846DC
:1035E000FFF700FF10B90120BDE8F0816906080E61
:1035F000FFF7C1FFFFF748FF18B9FFF723FF0120CE
:10360000F2E73046FFF7B7FFFFF73EFF00240BE07D
:1036100018F80400FFF7AFFFFFF736FF18B9FFF700
:1036200011FF0020E0E7641CBC42F1DBFFF70AFF5A
:103630000020D9E770B5054600246048001D0068E9
:1036400020F0F0005D49091D08600846006840F060
:1036500080000860002617E000205949091F086013
:103660000220FEF7B4FF01205649C1F8A001600610
:10367000040E53488038006808B1601CC4B20220B0
:10368000FEF7A5FF701CC6B2082EE5DB15B1FFF7EB
:103690002BFF01E0FFF74CFF204670BD2DE9F04104
:1036A00006460F4614461D46FFF79CFE10B9012042
:1036B000BDE8F0817106080EFFF75DFFFFF7E4FE3D
:1036C00018B9FFF7BFFE0120F2E73846FFF753FFB6
:1036D000FFF7DAFEFFF786FE012101EB4601C8B2D3
:1036E000FFF749FFFFF7D0FE0DE0012C04D10020C9
:1036F000FFF7A0FF287003E00120FFF79BFF287071
:103700006D1C601EC4B2002CEFD1FFF79BFE0020A1
:10371000CEE770B505460E460024FFF763FE284647
:10372000FFF729FF641CFFF7AFFE3046FFF723FFCA
:10373000641CFFF7A9FEFFF755FE691CC8B2FFF72E
:103740001AFF641CFFF7A0FE0020FFF773FF04467A
:10375000FFF778FE204670BD2DE9F0410746884608
:1037600015461E460024FFF73DFE3846FFF703FFCF
:10377000FFF78AFE4046FFF7FEFEFFF785FEFFF7E4
:1037800031FE791CC8B2FFF7F6FEFFF77DFE00BFE1
:103790000DE0681EA04204D00120FFF74BFF30551A
:1037A00003E00020FFF746FF3055601CC4B2AC4276
:1037B000EFDBFFF747FE2046BDE8F081000C01403B
:1037C000A4812142008021422DE9F04180460D462E
:1037D00016461F460024FFF705FE4046FFF7CBFEC6
:1037E000FFF752FE2846FFF7C6FEFFF74DFE00BF6B
:1037F00006E0385DFFF7BFFEFFF746FE601CC4B26F
:10380000B442F6DBFFF71EFE0120BDE8F08170B583
:1038100005460E46144631462846FFF77AFF2070CB
:10382000012070BD37B504460D4602AB0122294682
:103830002046FFF7C9FF3EBD2DE9F84307468846FD
:1038400014461D46089E6A4641463846FFF7DFFF8C
:1038500028B3601CFF2101FA00F0C4F108012944DB
:10386000491EFF220A41104300F0FF09C5F108007C
:1038700006FA00F0C6B2C4F1070006419DF8000048
:1038800000EA090000909DF80000304300909DF888
:10389000002041463846FFF7C5FFBDE8F883002009
:1038A000FBE7F8B506460F4614461D466A463946FC
:1038B0003046FFF7ACFF2DB10120A0409DF800106D
:1038C000084305E00120A0409DF8001021EA000017
:1038D000C0B200909DF8002039463046FFF7A2FFA5
:1038E000F8BD000010B586B0044601210820FDF7A0
:1038F000DFFC01218804FDF7E8FC4FF48060ADF89F
:10390000140003208DF8160018208DF8170005A963
:10391000E948FDF7ABF94FF40060ADF8140004205E
:103920008DF8170005A9E448FDF7A0F927208DF8C8
:10393000000000208DF8010001208DF802008DF8B4
:1039400003006846FCF7B1FD01940020ADF80800C3
:10395000ADF80A00ADF80C00ADF810000C20ADF881
:103960000E0001A9D548FEF758FC012240F225516E
:10397000D248FEF7EAFC0121D048FEF7DAFC06B097
:1039800010BD2DE9FF5F40F22551CC48FEF7C2FD86
:10399000002876D0C948FEF73DFDC94908600846B1
:1039A0000078C8490870C6480068592802D102202A
:1039B000C5490870C2480068582802D10120C24990
:1039C0000870BF4800680A2865DDBD4800685A28AD
:1039D00009D10020BD490870BD490870BD49087073
:1039E000BD49087057E0B648006841280AD1012057
:1039F000B64908700020B6490870B6490870B64943
:103A0000087048E0AE48006845280BD10020AF4957
:103A100008700120AE4908700020AE490870AE4918
:103A2000087038E0A6480068422807D0A44800681B
:103A3000432803D0A248006844280AD10020A349A3
:103A40000870A3490870A34908700120A2490870B2
:103A500021E09B480068462807D09948006847281D
:103A600003D09748006848280CD100209749087077
:103A700097490870012097490870002096490870FE
:103A800009E004E1002091490870914908709149CA
:103A90000870914908708A4800680A2862DA8848E4
:103AA000006848B900208949087089490870894927
:103AB00008708949087055E081480068012809D1DB
:103AC0008249087000208249087082490870824942
:103AD000087047E07A48006805280BD100207B4930
:103AE000087001207A49087000207A4908707A49E4
:103AF000087037E072480068022807D070480068F4
:103B0000032803D06E48006804280AD100206F49BA
:103B100008706F4908706F49087001206E4908707D
:103B200020E067480068062807D065480068072835
:103B300003D06348006808280BD10020634908704F
:103B400063490870012063490870002062490870C9
:103B500008E000205D4908705D4908705D49087003
:103B60005D490870574800787B2802D101205B49E5
:103B70000870544800787D2802D102205749087007
:103B80005648007801280AD14E4800785449554AD1
:103B90001278885453480078401C524908704F48A6
:103BA0000078022873D14E48C078502803D10120F4
:103BB0004D49087071E04A48407823286DD0494843
:103BC00000784A49087034E046490978474A127833
:103BD000881A06F090FB804642460B460020444976
:103BE00005F0C6FB04460D4640490978491E3C4A8B
:103BF000515CA1F1300006F07EFB064622462B46C2
:103C000006F0E0FB82468B463A48006806F0EAFE82
:103C100052465B46CDE9000106F0EEF8CDE902011F
:103C200006F0B8F83349086030480078401E2F4944
:103C300008702E4800780428C6DA294840783038C1
:103C4000092829D2DFE800F0050A0F14191E2526DD
:103C5000270028480068284908601DE025480068BA
:103C60002649086018E0234800682549086013E0E9
:103C700020480068234908600EE01E480068224979
:103C8000086009E01B4800682049086004E011E072
:103C900003E001E000E000BF00BF00200F49087012
:103CA00010490870114908701249086032210C4807
:103CB00004F02EFEBDE8FF9F000C014000480040CC
:103CC000900000208C00002019000020150000202A
:103CD000160000201700002018000020940000208B
:103CE00000060020950000203E00002096000020E5
:103CF00000002440980000204400002048000020DC
:103D00004C000020500000205400002058000020EB
:103D10001FB501210846FDF7CBFA01210420FDF76C
:103D2000C7FA4FF48050ADF80C0048208DF80F0012
:103D300003A91248FCF79AFF0C210020FDF7ACF80C
:103D40004FF48050019000208DF808000C208DF871
:103D5000090001208DF80A0001A8FCF7A7FE282021
:103D60008DF8000002208DF8010001208DF802007E
:103D70008DF803006846FCF798FB1FBD0008014062
:103D80000146002901DA484200E00846704700B5C4
:103D900003460A46002B07DD0120FE49086000208B
:103DA000FD49C1F8BC0106E00020FA490860012085
:103DB000F949C1F8BC011846FFF7E2FFF74908804E
:103DC000002A08DD0120F349091F08600020F2499C
:103DD000C1F8B00107E00020EE49091F086001208A
:103DE000ED49C1F8B0011046FFF7CAFFEB490C31AD
:103DF000088000BD70B506460D46E949304606F01C
:103E0000E9FF0BD3E749304607F0E4F806D3E6486C
:103E10000078012802D0B5F57A7F0DDA0124002060
:103E2000DC490860DC49C1F8BC01DA49091F0860B7
:103E3000D949C1F8B00100E00024204670BD70B53A
:103E400006460C461546D848007808B9002070BDD3
:103E5000D648008870B9D649304607F0BBF809D279
:103E6000D449304606F0B6FF04D21CB915B901207A
:103E7000CE490880CD480088012819D1CE48008855
:103E8000401C80B2CC490880322803DD0020088025
:103E9000C6490880032C0BDD032D09DD282C07DA29
:103EA000282D05DA0020C149088008800120CEE7CE
:103EB0000020CCE72DE9F04107460E4614461D468A
:103EC000BE480088E0B92046FFF75AFF0246284660
:103ED000FFF756FF10441E2805DAB9480088401C39
:103EE000B749088002E00020B5490880B44800883E
:103EF0000A2805DD0120B14908800020B04908806A
:103F0000AE48008801281DD1AE480088401C80B210
:103F1000AC490880C82803DD00200880A749088034
:103F2000A949384607F056F80CD2A849304607F0A0
:103F300051F807D2A649304606F04CFF02D20220C3
:103F40009E4908809D480088022816D1A148008813
:103F5000401C80B29F490880642803DD002008804F
:103F6000964908806019FFF70BFF462805DD002001
:103F7000924908800120BDE8F0810020FBE703465C
:103F80001846884200DD0846904200DA1046704725
:103F900010B53220FEF76EFD0446012C07D1824891
:103FA000007808B9012000E000207F49087010BDAA
:103FB0002DE9F04F87B083468A46584606F09BF9B4
:103FC0000022854BCDE9000106F0FCF906460022EF
:103FD000824B05F0CDFF80460022814B05F0C8FFE3
:103FE000044600227F4B05F0C3FFCDE9020105F036
:103FF000D1FE0590059806F0F5FC80467A4A7B4B89
:1040000006F0E0F906460022794B06F0DBF904469B
:1040100005F0C0FE77490860504606F06CF90022B2
:104020006D4BCDE9000106F0CDF9804600226B4BC7
:1040300005F09EFF06460022694B05F099FF00221D
:10404000684BCDE9020105F093FF044605F0A2FE9E
:104050000490049806F0C6FC0646634A634B06F0DB
:10406000B1F904460022624B06F0ACF9804605F037
:1040700091FE6149086007B0BDE8F08F2DE9F04F6F
:104080008FB0804604F06DFA5C490860B8F1010F0A
:104090001BD104F04EF95A4800685A4908605A4941
:1040A000B1F9000006F06AFE584908605649B1F9B6
:1040B000040006F063FE564908605649B1F9040051
:1040C00006F05CFE544908608AE14421D020FFF7E5
:1040D00020FB83464321D020FFF71BFB0BEB002086
:1040E000099006F04BFE04464621D020FFF711FB55
:1040F00083464521D020FFF70CFB0BEB00200990F5
:1041000006F03CFE07464821D020FFF702FB83461D
:104110004721D020FFF7FDFA0BEB0020099006F0B5
:104120002DFE06463C21D020FFF7F3FA83463B21C3
:10413000D020FFF7EEFA0BEB0020099006F01EFEF0
:1041400082463E21D020FFF7E4FA83463D21D0206D
:10415000FFF7DFFA0BEB0020099006F00FFE814617
:104160004021D020FFF7D5FA83463F21D020FFF72A
:10417000D0FA0BEB0020099006F000FE05464FF048
:104180008E41204606F026FF4BD24FF08F4120464D
:1041900044E00000B881214200802142342C0140DB
:1041A000000020C2000020421A0000200E01002062
:1041B000000020C100002041100100200601002065
:1041C000080100200A0100200020CB460000A0C109
:1041D0000000A0410C0100200000694000001040D8
:1041E00000003E4000002A40F1D4C853FB210940A2
:1041F00000C05040140100201801002024000020BD
:10420000D80100202C000020C40100203000002034
:1042100034000020CA0100204000002006F016FFF4
:1042200004464FF08E41384606F0D4FE05D24FF0DA
:104230008F41384606F00AFF07464FF08E41304660
:1042400006F0C8FE05D24FF08F41304606F0FEFE64
:1042500006464FF08E41504606F0BCFE05D24FF0A8
:104260008F41504606F0F2FE82464FF08E4148469E
:1042700006F0B0FE05D24FF08F41484606F0E6FE4C
:1042800081464FF08E41284606F0A4FE05D24FF03D
:104290008F41284606F0DAFE054684F00040FE49CC
:1042A0000860284606F09EFBCDE90201484606F06C
:1042B00099FBCDE90001DDE9022304F08BFF002228
:1042C000F64BCDE9040106F07DF8F54AF54BCDE952
:1042D000060105F04DFECDE9080105F05BFD0B90F0
:1042E000284606F07FFBCDE90201504606F07AFB36
:1042F000CDE90001DDE9022304F06CFF0022E74B69
:10430000CDE9040106F05EF8E54AE64BCDE9060189
:1043100005F02EFECDE9080105F03CFD0A904FF0B6
:104320008D41504606F0F8FB0E904FF08D41484607
:1043300006F0F2FB0D904FF08D41284606F0ECFBA5
:104340000C90204606F04EFB4FF06632D64BCDE97E
:10435000060105F00DFECDE9080105F01BFD044640
:10436000384606F03FFB4FF06632CF4BCDE90601F1
:1043700005F0FEFDCDE9080105F00CFD0746CB4830
:104380000078022810D121460B9800F0CDFC80F077
:104390000040C749086039460A9800F0FEFD80F0E9
:1043A0000040C449086013E0C048007803280FD1DA
:1043B00021460B9800F0C8FD80F00040BC49086021
:1043C00039460A9800F034FF80F00040B94908608F
:1043D000B7480068B8490860B8480660B848056042
:1043E0000FB0BDE8F08F2DE9F04F89B0B5480068F7
:1043F00000287DD14FF48050B3490860B34800785D
:1044000008B9012000E00020B0490870A7480078F2
:10441000FFF734FE0320FEF789FF4042AC490860F5
:104420000420FEF783FF4042AA490860084601685D
:10443000A7480068FFF7BCFDA5480068A5490968C2
:1044400000EB010A0AEBDA71481005F054FF944AB8
:10445000944BCDE9020105F0B5FF00229E4BCDE95A
:10446000040105F0AFFF804600229C4B05F080FD63
:10447000064600229A4B05F07BFD0022994BCDE9C0
:10448000060105F09FFF044605F084FC964908608C
:104490000846006806F0A6FA06460022914B05F091
:1044A00067FD04460D469148006806F09BFA804679
:1044B00022462B4605F0A0FC824605F06BFC8B499A
:1044C00008608B497C48006806F026FB804606F0B1
:1044D00089FA0646724A734B05F074FF044605F0EC
:1044E00059FC84490860844801688248006800E0FB
:1044F0001DE206F0ABFD804606F074FA0646002287
:10450000784B05F05FFF044605F044FC7B490860EA
:1045100078480068784908606E4909686C4A1268F2
:10452000881A05F0E8FE82460022754B05F020FD52
:1045300080460022694B05F01BFD594A594BCDE9D5
:10454000000105F03FFF0022634BCDE9020105F0B9
:1045500039FF0022614BCDE9040105F009FD064653
:1045600000225F4B05F004FD00225E4BCDE9060101
:1045700005F028FF044605F00DFC62490860084676
:10458000006806F02FFA06460022564B05F0F0FCB4
:10459000804689465C48006806F024FA8246424616
:1045A0004B4605F029FC044605F0F4FB564908602B
:1045B000564801685348006806F048FD06465448CE
:1045C0000168304606F03AFC04464F4801685148FD
:1045D000006806F033FC0790484801684E480068C0
:1045E00006F02CFC06904D4801684248006806F031
:1045F0002DFD82464A480168504606F01FFC804661
:10460000484801683848006806F020FD0590464893
:104610000168059806F012FC824634480168434858
:10462000006806F00BFC8346514606F007FA814607
:10463000414606F003FA0746069906F0FFF90646DA
:10464000079906F0FBF90546214606F0F7F980F0D8
:104650000040374908602D4801682A48006806F084
:10466000F5FC06462A480168304606F0E7FB04469A
:10467000254801682748006806F0E0FB07901F48BE
:1046800001682548006806F0D9FB83462348016885
:10469000184800684EE000003000002000806640AE
:1046A000F1D4C853FB210940666630401400002055
:1046B000D8010020D40100202C000020340000206C
:1046C0004000002030012142140401400401002078
:1046D000F0000020F400002000C0504000408F4057
:1046E0000060984000006940A00000209C0000206D
:1046F00000003443A4000020B4000020A8000020E3
:1047000000206440B0000020AC000020E800002041
:10471000DC000020D8000020D4000020E4000020AD
:10472000D0000020E0000020CC000020C8000020C5
:10473000B800002006F08AFC82467E480168504698
:1047400006F07CFB80467C4801687C48006806F0E7
:104750007DFC05907A480168059806F06FFB82465B
:10476000784801687848006806F068FB5146069072
:1047700006F064F98146414606F060F9074659465D
:1047800006F05CF90646079906F060FC05462146EE
:1047900006F05CFC80F000406C4908606C480068E2
:1047A00006F020F9064600226A4B05F0E1FB0446BC
:1047B0000D466248006806F015F922462B46CDE901
:1047C000020105F019FB804689466348006806F03F
:1047D00009F942464B46CDE9040105F0F3FD824656
:1047E00005F05AFD079006F0C9FA5C490860574881
:1047F000006806F0F7F882460022564B05F0B8FB39
:10480000804689464D48006806F0ECF842464B4623
:10481000CDE9020105F0F0FA06460F464E48006861
:1048200006F0E0F832463B46CDE9040105F0CAFD4A
:10483000044605F031FD079006F0A0FA48490860EB
:104840004848007801280BD147480078401CC0B286
:10485000454908700A2803D10020087041490870B2
:1048600042480078012823D1FEF72DFC404908601A
:1048700040480068401C3F4908603F4800683C4988
:10488000096808443C4908603A48006864280BD12C
:1048900008460068642190FBF1F038490860002068
:1048A0003549086033490860002009B0BDE8F08F41
:1048B000FFF76EFB2948006806F024FA0446304AE8
:1048C0005142FFF75CFB2F4908602548006806F05D
:1048D00019FA04462A4A5142FFF751FB2A49086057
:1048E0002A4803682A4802682A4801682A4800685A
:1048F000FFF7E0FA10B10120284908702348026848
:104900002348016823480068FFF799FA10B1002096
:1049100022490870194801681E480068FFF76AFAC2
:1049200028B91948016817480068FFF730FA0020D5
:10493000BBE70000D0000020E0000020A000002025
:10494000CC0000209C000020C8000020BC000020FB
:10495000B800002000006940EC000020C0000020EA
:10496000C40000203D0000203C0000200401002085
:10497000F8000020FC00002000010020280000209A
:104980000CE5FFFF1C00002020000020F4000020A8
:10499000F00000202C000020400000201A00002021
:1049A00038B5C4480078012805D1C3A200210846C3
:1049B000FEF759FA12E0BF480078022805D1BFA2DD
:1049C00000210846FEF74FFA08E0BA4800780328AD
:1049D00004D1BCA200210846FEF745FABAA20A217A
:1049E0000020FEF740FA0021B948006806F0F2F90D
:1049F00004D2B8A20A213020FEF735FA0021B448CB
:104A0000006806F0E7FA04D8B3A20A213020FEF7C6
:104A10002AFAAF48006806F075F90546FFF7B0F9C5
:104A200004460C20032322460A2100903820FEF77A
:104A3000D0F9AAA214210020FEF715FA0021A948F6
:104A4000006806F0C7F904D2A2A214212A20FEF7BA
:104A50000AFA0021A348006806F0BCFA04D89EA216
:104A600014212A20FEF7FFF99E48006806F04AF953
:104A70000546FFF785F904460C200423224614213D
:104A800000903220FEF7A5F90C200090964800888F
:104A900082B2052314215220FEF79BF993A2142120
:104AA0007220FEF7E0F992A21E210020FEF7DBF94A
:104AB00090480068002811DA86A21E211020FEF717
:104AC000D2F98C480068FFF75BF904460C200423F8
:104AD00022461E2100901A20FEF77BF985480068C7
:104AE000002811DB7CA21E211020FEF7BCF98148B2
:104AF0000068FFF745F904460C20042322461E21D6
:104B000000901A20FEF765F900217B48006806F046
:104B100061F904D26FA21E213C20FEF7A4F9002106
:104B20007548006806F056FA04D86BA21E213C2096
:104B3000FEF799F97048006806F0E4F80546FFF7BB
:104B40001FF904460C20042322461E210090442015
:104B5000FEF73FF969A21E216020FEF784F969A2E1
:104B600028210020FEF77FF967480068002811DA45
:104B700058A228211020FEF776F963480068FFF755
:104B8000FFF804460C2004232246282100901A2016
:104B9000FEF71FF95C480068002811DB4EA22821AF
:104BA0001020FEF760F958480068FFF7E9F804465E
:104BB0000C2004232246282100901A20FEF709F930
:104BC00000215248006806F005F904D241A22821CC
:104BD0003C20FEF748F900214C48006806F0FAF93D
:104BE00004D83DA228213C20FEF73DF94748006843
:104BF00006F088F80546FFF7C3F804460C200423A6
:104C00002246282100904420FEF7E3F83BA2282109
:104C10006020FEF728F93EA232210020FEF723F99A
:104C20003CA232211E20FEF71EF939A2322140207B
:104C3000FEF719F938480068642190FBF1F40C2064
:104C400002232246322100901320FEF7C2F8324898
:104C500000680A2190FBF1F090FBF1F201FB1204D5
:104C60000C2001232246322100902A20FEF7B1F8C1
:104C7000294800680A2190FBF1F201FB12040C2084
:104C800001232246322100900846FEF7A2F823486D
:104C9000007820B122A232215F20FEF7E4F81F48FD
:104CA000007820B91FA232215F20FEF7DCF8FDF763
:104CB000B0FF38BD14000020444D50004B616C6DB6
:104CC000616E000043204600416E676C6500000085
:104CD0002C0000202D0000002B0000004779726F8F
:104CE0007800000030000020380000206D6D0000CA
:104CF0004C0000001C000020140100206D6D2F737B
:104D000000000000520000002000002018010020D8
:104D1000560000002E000000280000201A0000208D
:104D20004F4646004F4E20002DE9F05F05460C46E9
:104D3000FD4EFE4F4FF07C584FF00109FC480168D2
:104D4000204606F083F98346FA480168584606F083
:104D500075F88246F8480168504605F06FFEF6493E
:104D60000860F6484168304606F070F98246F3481C
:104D70008168504606F06AF9F1490860EF48C0685A
:104D800080F000404860ED48C06880F000408860D6
:104D90000846C7600868E749096806F04FF8824688
:104DA000E6480168504605F049FEE4490860E449D8
:104DB0004868E049096806F041F88246DF484168E2
:104DC000504605F03BFEDD494860DD498868D94919
:104DD000096806F033F88246D8488168504605F0E5
:104DE0002DFED6498860D649C868D249096806F0C0
:104DF00025F88246D148C168504605F01FFECF49CC
:104E0000C860CD480168284606F020F9CD49086001
:104E1000484605F0CBFF8246C8480168504606F078
:104E20000DF8C9490860484605F0C0FF8246C348EE
:104E30008168504606F002F8C4490860484605F00B
:104E4000B5FF8346C0480168584605F0F7FF824623
:104E5000414605F0F3FDBE49086008460168BA48BE
:104E6000006805F059FEBB490860B9480168B748B9
:104E7000006805F051FEB8490860B3480068B749BA
:104E80000860484605F092FF8246AC4841685046AB
:104E900005F0D4FFB2490860B0480168AD48006829
:104EA00005F0CCFF8246A5480168504606F0C3F8DD
:104EB000A2490860AA480168A648006805F0BEFF3C
:104EC00082469E484168504606F0B5F89B494860C6
:104ED000A2480168A048006805F0B0FF82469748E4
:104EE0008168504606F0A7F8944988609C4801689C
:104EF0009948006805F0A2FF82469048C168504674
:104F000006F099F88D49C8608E480168914800689C
:104F100005F094FF824688480168504605F08EFDF2
:104F200085490860874801688B48006805F086FF5E
:104F300082467F480168504605F080FD7C49086044
:104F40007D480068BDE8F09F2DE9F05F05460C46FE
:104F5000844E78480168204605F070FF83468248F9
:104F60000168584605F06AFD804631464FF07E5094
:104F700006F06CF88246414605F060FF0746314670
:104F8000284605F05BFF8146394605F057FD764916
:104F9000086008460068BDE8F09F2DE9F05F05460F
:104FA0000C46614E614F4FF07C584FF001096F483D
:104FB0000168204606F04AF883465E480168584674
:104FC00005F03CFF82466A480168504605F036FD10
:104FD0006749086067484168304606F037F88246FE
:104FE00064488168504606F031F8634908606148BA
:104FF000C06880F0004048605E48C06880F00040B3
:1050000088600846C76008684A49096805F016FFC5
:10501000824658480168504605F010FD5549086021
:10502000554948684349096805F008FF82465148D8
:105030004168504605F002FD4E4948604E49886877
:105040003C49096805F0FAFE82464A4881685046A4
:1050500005F0F4FC474988604749C8683549096844
:1050600005F0ECFE82464348C168504605F0E6FC78
:105070004049C8603E480168284605F0E7FF3F49BF
:105080000860484605F092FE82463A48016850465C
:1050900005F0D4FE3A490860484605F087FE82468E
:1050A00034488168504605F0C9FE364908604846D4
:1050B00005F07CFE834632480168584605F0BEFE86
:1050C0008246414605F0BAFC2F490860084601684F
:1050D0002B48006805F020FD2C4908602A4801682B
:1050E0002848006805F018FD294908602448006830
:1050F00028490860484605F059FE82461D48416827
:10510000504605F09BFE24490860224801681F486C
:10511000006805F093FE824616480168504605F087
:105120008AFF1449086039E06F12833AA69B443B1A
:10513000240100201C010020200100204801002043
:1051400034060020280100202C010020300100201E
:1051500034010020380100203C01002040010020E3
:10516000440100200AD7A33C580100206001002020
:105170005C0100208401002044060020640100201E
:10518000680100206C0100207001002074010020E3
:10519000780100207C01002080010020394801684E
:1051A0003948006805F04AFE824638484168504652
:1051B00005F041FF354948603548016835480068C9
:1051C00005F03CFE824631488168504605F033FFC9
:1051D0002E4988602B4801682E48006805F02EFE95
:1051E00082462A48C168504605F025FF2749C86015
:1051F000294801682448006805F020FE82462748B7
:105200000168504605F01AFC2449086022480168EC
:105210002048006805F012FE824621480168504689
:1052200005F00CFC1E4908601C480068BDE8F09FB2
:105230002DE9F05F05460C461A4E1B4801682046D2
:1052400005F0FCFD834619480168584605F0F6FB59
:10525000804631464FF07E5005F0F8FE82464146CA
:1052600005F0ECFD07463146284605F0E7FD81468E
:10527000394605F0E3FB0D49086008460068BDE8C3
:10528000F09F0000800100207401002084010020B4
:105290007C01002078010020640100205C010020D6
:1052A000600100200AD7A33C1C01002094010020CB
:1052B00038B50446FB4890F82400C0B114B1022070
:1052C000009001E000200090F64A1268D17BF54A78
:1052D000526810786B460122FEF77CF910B14FF04E
:1052E000FF3038BD9DF80010EE48417423E0ED48D2
:1052F000807A10B94FF0FF30F3E724B1E948407CE1
:1053000008B10020EDE714B10120009001E0002079
:105310000090E44A1268D17BE24A526810786B46EA
:105320000122FEF757F910B14FF0FF30D9E79DF891
:105330000010DC4841740020D3E738B5002419E0A0
:10534000D8480068C07AA04204D0D6480068407DA2
:10535000A04200D10CE0D349496808786B4601228D
:105360002146FEF79BF910B14FF0FF3038BD00BF6A
:10537000601CC4B2CB4840680079A042E0DC002049
:10538000F4E770B504460D46C6480068C07AA042EE
:1053900004D0C4480068407DA04202D14FF0FF30E5
:1053A00070BDC04840680079A04202DC4FF0FF3079
:1053B000F6E7BC49496808782B4601222146FEF7EA
:1053C0006DF9EDE738B50446B64890F82300A042E1
:1053D00001D1002038BD14B13020009001E0002040
:1053E0000090B048807C20B19DF8000040F00200A1
:1053F0000090AC4890F8220020B19DF8000040F0E9
:1054000080000090A74A1268117DA64A5268107861
:105410006B460122FEF7DEF810B14FF0FF30D9E7FE
:10542000A04880F823400020D4E738B5044604F0B3
:10543000700010B10120009005E014B10020009030
:1054400001E040200090974A1268917C954A52688A
:1054500010786B460122FEF7BDF820B1002191487B
:105460008172481E38BD9DF8000020F040018D4833
:1054700001730020009004F0400020B99DF8000066
:1054800040F00400009004F0200020B99DF80000D6
:1054900040F00200009004F0100020B99DF80000D8
:1054A00040F00100009004F0080020B99DF80000D1
:1054B00040F0380000907B4A1268D17C794A5268EB
:1054C00010786B460122FEF785F820B1002175485F
:1054D0008172481EC6E724B1082C02D00020FFF7D5
:1054E00071FF70488472002101753220FDF793F836
:1054F0000020B7E738B504466A48807CA04201D155
:10550000002038BD002C46D0664A12681179654AE1
:10551000526810786B460122FEF7C0F810B14FF0C8
:10552000FF30EEE79DF8000020F0200000905D4A7B
:10553000126811795B4A526810786B460122FEF7B7
:1055400049F810B14FF0FF30DBE70320FDF763F8B7
:1055500002200090534890F8220020B19DF80000EE
:1055600040F0800000904F4890F8230020B19DF853
:10557000000040F0300000904A4A1268117D494A0C
:10558000526810786B460122FEF724F8002851D0AB
:105590004FF0FF30B5E7434A12681179414A52682B
:1055A00010786B460122FEF779F810B14FF0FF300A
:1055B000A7E73C48807A00F0010028B19DF8000080
:1055C00040F02000009004E09DF8000020F0200052
:1055D0000090344A12681179324A526810786B464A
:1055E0000122FDF7F7FF10B14FF0FF3089E70320EC
:1055F000FDF711F82B4890F8220010B180200090A0
:1056000001E000200090274890F8230020B19DF889
:10561000000040F030000090224A1268117D214ABB
:10562000526810786B460122FDF7D4FF10B14FF09D
:10563000FF3066E71B488474002062E708B519480C
:10564000807A10B94FF0FF3008BD00200090154A55
:105650001268D17B134A526810786B460122FDF71D
:10566000B9FF10B14FF0FF30EEE70E4A12685179E2
:105670000C4A526810786B460122FDF7ABFF10B15F
:105680004FF0FF30E0E7074A12681179054A526887
:1056900010786B460122FDF79DFF28B14FF0FF30D7
:1056A000D2E7000098010020F74890F82400002875
:1056B00050D00C200090F44A12681179F24A5268D6
:1056C00010786B460122FDF785FF10B14FF0FF30D7
:1056D000BAE7C0200090EC48807A00F0010020B1C9
:1056E0009DF8000040F020000090E74A1268117910
:1056F000E54A526810786B460122FDF76BFF10B146
:105700004FF0FF30A0E7E048407C10B1022000904D
:1057100001E000200090DC4A1268D17BDA4A52682E
:1057200010786B460122FDF755FF10B14FF0FF30A6
:105730008AE700200090D44A12685179D24A526810
:1057400010786B460122FDF745FF002852D04FF03C
:10575000FF3079E704200090CB4A12681179CA4AD9
:10576000526810786B460122FDF734FF10B14FF0FC
:10577000FF3069E7C448807C20B9C348807A00F0D4
:10578000010010B94020009001E060200090BE4A66
:1057900012681179BC4A526810786B460122FDF7F5
:1057A00019FF10B14FF0FF304EE7B748407C10B101
:1057B0000120009001E000200090B34A1268D17BE4
:1057C000B14A526810786B460122FDF703FF10B111
:1057D0004FF0FF3038E7AC4A12685179AA4A526854
:1057E0001078A94B10330122FDF7F4FE10B14FF0F1
:1057F000FF3029E7002027E770B50446002624F093
:105800000104A14890F8240008B1002070BD9E4812
:10581000807A10B94FF0FF30F8E79B48057C807A1A
:105820002040994908740846007CA04202D04FF0FD
:10583000FF3600E0002614B99348007D18B101201E
:10584000FFF736FD02E00020FFF732FD3CB1FFF725
:10585000F5FE20B18C4805744FF0FF30D6E7304696
:10586000D4E738B504468848807A10B94FF0FF3045
:1058700038BDBC2C02DB0120009015E0622C02DB5D
:105880000220009010E02A2C02DB032000900BE0A5
:10589000142C02DB0420009006E00A2C02DB052019
:1058A000009001E0062000907748C07A9DF8001033
:1058B000884201D10020DBE7734A12689178724A6E
:1058C000526810786B460122FDF784FE10B14FF04C
:1058D000FF30CDE79DF800106B48C1720020C7E78C
:1058E00038B50446282C02DD4FF0FF3038BDDCB956
:1058F0000020FFF767FD00208DF8000007208DF8DD
:105900000100614A1268917C5F4A526810786B46C8
:105910000222FDF75FFE10B14FF0FF30E6E70021F5
:10592000594801750020E1E70120FFF74BFD2020D9
:105930008DF80000012C06D100208DF80100052013
:10594000FFF78FFF17E0052C06DC01208DF8010022
:105950000520FFF786FF0EE0142C06DC02208DF8F0
:1059600001000A20FFF77DFF05E003208DF801000C
:105970001420FFF776FF9DF80100072101EB80104E
:10598000C0B28DF80100404A1268917C3E4A5268CC
:1059900010786B460222FDF71DFE10B14FF0FF306C
:1059A000A4E70821384881720021017301210175A3
:1059B0000020FFF721FF002098E738B50446324861
:1059C000807A10B94FF0FF3038BD2F4890F824008E
:1059D00010B14FF0FF30F7E72B48007D50B134B1E4
:1059E000282C04DCE0B2FFF77BFF0020ECE700206E
:1059F000FFF776FF042C01DA042404E0B4F57A7F83
:105A000001DD4FF47A744FF47A7090FBF4F0401E8D
:105A1000C0B200901C4A126851781B4A5268107834
:105A20006B460122FDF7D6FD10B14FF0FF30CBE7FA
:105A30009DF80000401C4FF47A7191FBF0F081B2A8
:105A40001148C1810146C9894810FFF70AFF0020AB
:105A5000BAE738B504460C48807A10B94FF0FF30E9
:105A600038BD022C06D0042C07D0082C08D0102CEE
:105A70000FD10BE0002000900EE0082000900BE01A
:105A80001020009008E000009801002018200090ED
:105A900002E04FF0FF30E3E700BFF948407A9DF89D
:105AA0000010B0EBE10F01D10020D9E7F44A1268F1
:105AB000D179F34A526810786B460122FDF78AFDCE
:105AC00010B14FF0FF30CBE79DF80000C110EC485B
:105AD00041720020C4E738B50446E948807A10B91D
